:107DB800DEEF3EF0650E006E170E016E2E0E026E9F
:107DC8000B0E036EAB0E046E3E0E056E010E066EB4
:107DD800000E076E06B202D007B21BD0206A00C0A0
:107DE80021F0226A01C023F0246A02C025F0266A25
:107DF80003C027F006C028F038EC3FF0246A04C01E
:107E080025F0266A05C027F007C028F038EC3FF0B7
:107E180022D0206A02C021F0226A03C023F0246A1B
:107E280004C025F0266A05C027F007C028F038EC02
:107E38003FF020C024F021C025F022C026F023C046
:107E480027F0206A00C021F0226A01C023F006C092
:107E580028F038EC3FF020C010F021C011F022C00B
:107E680012F023C013F0FFD7020E286201D020D0F1
:107E7800030E28623AD021502702F4CF29F0F3CF1D
:107E88002AF020502702F350292621502602F350C9
:107E9800292623502502F4CF2BF0F3CF2CF02250C3
:107EA8002502F3502B2623502402F3502B2652D0C0
:107EB80021502502F4CF29F0F3CF2AF020502502D3
:107EC800F350292621502402F35029262350270253
:107ED800F4CF2BF0F3CF2CF022502702F3502B26AF
:107EE80023502602F3502B2635D021502702F4CFF9
:107EF80029F0F3CF2AF020502702F35029262150E9
:107F08002602F350292625502302F4CF2DF0F3CF73
:107F18002EF024502302F3502D2625502202F35030
:107F28002D2623502702F4CF2BF0F3CF2CF022502C
:107F38002702F3502B2623502602F3502B2628B075
:107F480005D02E502A262D50292204D02E502A5EE4
:107F58002D50295A29C02FF02AC030F02BC031F0FB
:107F68002CC032F0D1EC3FF02FC035F030C036F0E5
:107F780029C033F02AC034F0E8EC3FF033C020F0D9
:107F880034C021F02BC033F02CC034F0E8EC3FF0C3
:107F980033C022F034C023F012003150321013E005
:107FA8002FC033F030C034F031C035F032C036F075
:107FB800E8EC3FF031C02FF032C030F037C031F07C
:107FC80038C032F0EAD71200376A386A100E3B6EB2
:107FD800D89034363336383637363650385C3A6EC1
:107FE80035503758396E05E339C037F03AC038F0A4
:087FF80034803B2EEDD712008E
:00000001FF
